{
  "bytecode": {
    "linkReferences": {},
    "object": "608060405234801561001057600080fd5b506103c7806100206000396000f300608060405260043610610041576000357c0100000000000000000000000000000000000000000000000000000000900463ffffffff1680633bdab8bf14610046575b600080fd5b34801561005257600080fd5b5061005b61005d565b005b606060405180807f7465737431000000000000000000000000000000000000000000000000000000815250600501905060405180910390207f0f789018fb34875b82611251f46212d452d6dbcc2ddbc8014b7f792a5690fc1e6040518080602001828103825260058152602001807f746573743200000000000000000000000000000000000000000000000000000081525060200191505060405180910390a26000151560405180807f746573743100000000000000000000000000000000000000000000000000000081525060050190506040518091039020600019167f7ae5c573bf476a997bbfa9451c36131f23329f92880267604d172bf13f476bbf6040518080602001828103825260058152602001807f746573743200000000000000000000000000000000000000000000000000000081525060200191505060405180910390a360036040519080825280602002602001820160405280156101d35781602001602082028038833980820191505090505b50905060648160008151811015156101e757fe5b9060200190602002019067ffffffffffffffff16908167ffffffffffffffff1681525050606581600181518110151561021c57fe5b9060200190602002019067ffffffffffffffff16908167ffffffffffffffff1681525050606681600281518110151561025157fe5b9060200190602002019067ffffffffffffffff16908167ffffffffffffffff16815250508060405180828051906020019060200280838360005b838110156102a657808201518184015260208101905061028b565b5050505090500191505060405180910390203073ffffffffffffffffffffffffffffffffffffffff167f729ea84cbe8c5602de4a6154cbb87a664982d792acda88180524dfd21b3bc68b610926846040518083815260200180602001828103825283818151815260200191508051906020019060200280838360005b8381101561033d578082015181840152602081019050610322565b50505050905001935050505060405180910390a36040518080602001828103825260058152602001807f307831323300000000000000000000000000000000000000000000000000000081525060200191505060405180910390a0505600a165627a7a72305820057e6533a15e8618e7737b3fd958aeaa0164e8b045ad266186ecb724ea51af6a0029",
    "opcodes": "PUSH1 0x80 PUSH1 0x40 MSTORE CALLVALUE DUP1 ISZERO PUSH2 0x10 JUMPI PUSH1 0x0 DUP1 REVERT JUMPDEST POP PUSH2 0x3C7 DUP1 PUSH2 0x20 PUSH1 0x0 CODECOPY PUSH1 0x0 RETURN STOP PUSH1 0x80 PUSH1 0x40 MSTORE PUSH1 0x4 CALLDATASIZE LT PUSH2 0x41 JUMPI PUSH1 0x0 CALLDATALOAD PUSH29 0x100000000000000000000000000000000000000000000000000000000 SWAP1 DIV PUSH4 0xFFFFFFFF AND DUP1 PUSH4 0x3BDAB8BF EQ PUSH2 0x46 JUMPI JUMPDEST PUSH1 0x0 DUP1 REVERT JUMPDEST CALLVALUE DUP1 ISZERO PUSH2 0x52 JUMPI PUSH1 0x0 DUP1 REVERT JUMPDEST POP PUSH2 0x5B PUSH2 0x5D JUMP JUMPDEST STOP JUMPDEST PUSH1 0x60 PUSH1 0x40 MLOAD DUP1 DUP1 PUSH32 0x7465737431000000000000000000000000000000000000000000000000000000 DUP2 MSTORE POP PUSH1 0x5 ADD SWAP1 POP PUSH1 0x40 MLOAD DUP1 SWAP2 SUB SWAP1 KECCAK256 PUSH32 0xF789018FB34875B82611251F46212D452D6DBCC2DDBC8014B7F792A5690FC1E PUSH1 0x40 MLOAD DUP1 DUP1 PUSH1 0x20 ADD DUP3 DUP2 SUB DUP3 MSTORE PUSH1 0x5 DUP2 MSTORE PUSH1 0x20 ADD DUP1 PUSH32 0x7465737432000000000000000000000000000000000000000000000000000000 DUP2 MSTORE POP PUSH1 0x20 ADD SWAP2 POP POP PUSH1 0x40 MLOAD DUP1 SWAP2 SUB SWAP1 LOG2 PUSH1 0x0 ISZERO ISZERO PUSH1 0x40 MLOAD DUP1 DUP1 PUSH32 0x7465737431000000000000000000000000000000000000000000000000000000 DUP2 MSTORE POP PUSH1 0x5 ADD SWAP1 POP PUSH1 0x40 MLOAD DUP1 SWAP2 SUB SWAP1 KECCAK256 PUSH1 0x0 NOT AND PUSH32 0x7AE5C573BF476A997BBFA9451C36131F23329F92880267604D172BF13F476BBF PUSH1 0x40 MLOAD DUP1 DUP1 PUSH1 0x20 ADD DUP3 DUP2 SUB DUP3 MSTORE PUSH1 0x5 DUP2 MSTORE PUSH1 0x20 ADD DUP1 PUSH32 0x7465737432000000000000000000000000000000000000000000000000000000 DUP2 MSTORE POP PUSH1 0x20 ADD SWAP2 POP POP PUSH1 0x40 MLOAD DUP1 SWAP2 SUB SWAP1 LOG3 PUSH1 0x3 PUSH1 0x40 MLOAD SWAP1 DUP1 DUP3 MSTORE DUP1 PUSH1 0x20 MUL PUSH1 0x20 ADD DUP3 ADD PUSH1 0x40 MSTORE DUP1 ISZERO PUSH2 0x1D3 JUMPI DUP2 PUSH1 0x20 ADD PUSH1 0x20 DUP3 MUL DUP1 CODESIZE DUP4 CODECOPY DUP1 DUP3 ADD SWAP2 POP POP SWAP1 POP JUMPDEST POP SWAP1 POP PUSH1 0x64 DUP2 PUSH1 0x0 DUP2 MLOAD DUP2 LT ISZERO ISZERO PUSH2 0x1E7 JUMPI INVALID JUMPDEST SWAP1 PUSH1 0x20 ADD SWAP1 PUSH1 0x20 MUL ADD SWAP1 PUSH8 0xFFFFFFFFFFFFFFFF AND SWAP1 DUP2 PUSH8 0xFFFFFFFFFFFFFFFF AND DUP2 MSTORE POP POP PUSH1 0x65 DUP2 PUSH1 0x1 DUP2 MLOAD DUP2 LT ISZERO ISZERO PUSH2 0x21C JUMPI INVALID JUMPDEST SWAP1 PUSH1 0x20 ADD SWAP1 PUSH1 0x20 MUL ADD SWAP1 PUSH8 0xFFFFFFFFFFFFFFFF AND SWAP1 DUP2 PUSH8 0xFFFFFFFFFFFFFFFF AND DUP2 MSTORE POP POP PUSH1 0x66 DUP2 PUSH1 0x2 DUP2 MLOAD DUP2 LT ISZERO ISZERO PUSH2 0x251 JUMPI INVALID JUMPDEST SWAP1 PUSH1 0x20 ADD SWAP1 PUSH1 0x20 MUL ADD SWAP1 PUSH8 0xFFFFFFFFFFFFFFFF AND SWAP1 DUP2 PUSH8 0xFFFFFFFFFFFFFFFF AND DUP2 MSTORE POP POP DUP1 PUSH1 0x40 MLOAD DUP1 DUP3 DUP1 MLOAD SWAP1 PUSH1 0x20 ADD SWAP1 PUSH1 0x20 MUL DUP1 DUP4 DUP4 PUSH1 0x0 JUMPDEST DUP4 DUP2 LT ISZERO PUSH2 0x2A6 JUMPI DUP1 DUP3 ADD MLOAD DUP2 DUP5 ADD MSTORE PUSH1 0x20 DUP2 ADD SWAP1 POP PUSH2 0x28B JUMP JUMPDEST POP POP POP POP SWAP1 POP ADD SWAP2 POP POP PUSH1 0x40 MLOAD DUP1 SWAP2 SUB SWAP1 KECCAK256 ADDRESS PUSH20 0xFFFFFFFFFFFFFFFFFFFFFFFFFFFFFFFFFFFFFFFF AND PUSH32 0x729EA84CBE8C5602DE4A6154CBB87A664982D792ACDA88180524DFD21B3BC68B PUSH2 0x926 DUP5 PUSH1 0x40 MLOAD DUP1 DUP4 DUP2 MSTORE PUSH1 0x20 ADD DUP1 PUSH1 0x20 ADD DUP3 DUP2 SUB DUP3 MSTORE DUP4 DUP2 DUP2 MLOAD DUP2 MSTORE PUSH1 0x20 ADD SWAP2 POP DUP1 MLOAD SWAP1 PUSH1 0x20 ADD SWAP1 PUSH1 0x20 MUL DUP1 DUP4 DUP4 PUSH1 0x0 JUMPDEST DUP4 DUP2 LT ISZERO PUSH2 0x33D JUMPI DUP1 DUP3 ADD MLOAD DUP2 DUP5 ADD MSTORE PUSH1 0x20 DUP2 ADD SWAP1 POP PUSH2 0x322 JUMP JUMPDEST POP POP POP POP SWAP1 POP ADD SWAP4 POP POP POP POP PUSH1 0x40 MLOAD DUP1 SWAP2 SUB SWAP1 LOG3 PUSH1 0x40 MLOAD DUP1 DUP1 PUSH1 0x20 ADD DUP3 DUP2 SUB DUP3 MSTORE PUSH1 0x5 DUP2 MSTORE PUSH1 0x20 ADD DUP1 PUSH32 0x3078313233000000000000000000000000000000000000000000000000000000 DUP2 MSTORE POP PUSH1 0x20 ADD SWAP2 POP POP PUSH1 0x40 MLOAD DUP1 SWAP2 SUB SWAP1 LOG0 POP JUMP STOP LOG1 PUSH6 0x627A7A723058 KECCAK256 SDIV PUSH31 0x6533A15E8618E7737B3FD958AEAA0164E8B045AD266186ECB724EA51AF6A00 0x29 "
  },
  "abi": [
    {
      "constant": false,
      "inputs": [],
      "name": "emit",
      "outputs": [],
      "payable": false,
      "stateMutability": "nonpayable",
      "type": "function"
    },
    {
      "inputs": [],
      "payable": false,
      "stateMutability": "nonpayable",
      "type": "constructor"
    },
    {
      "anonymous": false,
      "inputs": [
        {
          "indexed": true,
          "name": "stringVar1",
          "type": "string"
        },
        {
          "indexed": false,
          "name": "stringVar2",
          "type": "string"
        }
      ],
      "name": "Event1",
      "type": "event"
    },
    {
      "anonymous": false,
      "inputs": [
        {
          "indexed": true,
          "name": "bytes32Var",
          "type": "bytes32"
        },
        {
          "indexed": true,
          "name": "boolVar",
          "type": "bool"
        },
        {
          "indexed": false,
          "name": "stringVar",
          "type": "string"
        }
      ],
      "name": "Event2",
      "type": "event"
    },
    {
      "anonymous": false,
      "inputs": [
        {
          "indexed": true,
          "name": "addressVar",
          "type": "address"
        },
        {
          "indexed": false,
          "name": "uintVar",
          "type": "uint256"
        },
        {
          "indexed": true,
          "name": "uint64Var1",
          "type": "uint64[]"
        },
        {
          "indexed": false,
          "name": "uint64Var2",
          "type": "uint64[]"
        }
      ],
      "name": "Event3",
      "type": "event"
    },
    {
      "anonymous": true,
      "inputs": [
        {
          "indexed": false,
          "name": "bytesVar",
          "type": "bytes"
        }
      ],
      "name": "Event4",
      "type": "event"
    }
  ]
}